:100000000C9446000C9463000C9463000C94630001
:100010000C9463000C9463000C9463000C946300D4
:100020000C94E1020C9463000C9463000C942B0379
:100030000C9463000C9463000C9463000C946300B4
:100040000C9463000C9463000C9463000C946300A4
:100050000C9463000C9463000C9463000C94630094
:100060000C9463000C9463000664EC1B3C04BC1607
:100070003E3BE5B93CC93C37C29E5A3D66049808F0
:100080003EEA69AAAA3E000000803F0011241FBE7C
:10009000CFEFD8E0DEBFCDBF11E0A0E0B1E0E4E0FB
:1000A000FEE002C005900D92A630B107D9F721E01D
:1000B000A6E0B1E001C01D92AC33B207E1F70E94A7
:1000C00091020C9400070C9400002F923F924F92E3
:1000D0005F926F927F928F929F92AF92BF92CF92D8
:1000E000DF92EF92FF920F931F93CF93DF93CDB7E1
:1000F000DEB766970FB6F894DEBF0FBECDBF9A8706
:1001000089871B0129013A01EF86F88A098B1A8B2E
:10011000A6019501C301B2010E94D10420E030E0A4
:1001200040E05FE30E94D1040E943E056B017C0128
:100130009B01AC010E94D1044B015C01A30192011F
:10014000C301B2010E94D10469837A838B839C83AB
:100150009B01AC01C501B4010E94D1046B877C876F
:100160008D879E879B01AC0169817A818B819C81FF
:100170000E9436036B8B7C8B8D8B9E8BA30192012F
:10018000C301B2010E943603A30192010E94D1046F
:100190006D837E838F8398879B01AC01C501B40179
:1001A0000E94D1042D813E814F8158850E943503E4
:1001B0006D837E838F8398872F85388949895A89F3
:1001C000C301B2010E94D104A70196010E94D1048B
:1001D0004B015C019B01AC0169817A818B819C811F
:1001E0000E9436032B853C854D855E850E94360333
:1001F0006B017C01A501940169817A818B819C81CD
:100200000E9435032B853C854D855E850E94360313
:1002100069837A838B839C83A70196016B897C8990
:100220008D899E890E94A2034B015C01A701960162
:100230006D817E818F8198850E94A2032B013C01F4
:10024000F10180829182A282B38264837583868366
:10025000978380869186A286B386A70196016981DD
:100260007A818B819C810E94A203E985FA85608353
:100270007183828393834482558266827782A70149
:100280009601C701B6010E94A203E985FA8560873D
:1002900071878287938766960FB6F894DEBF0FBE8C
:1002A000CDBFDF91CF911F910F91FF90EF90DF9025
:1002B000CF90BF90AF909F908F907F906F905F9006
:1002C0004F903F902F9008952F923F924F925F92C0
:1002D0006F927F928F929F92AF92BF92CF92DF9256
:1002E000EF92FF920F931F93CF93DF9300D000D034
:1002F00000D0CDB7DEB73B015E834D831901DA0133
:1003000014964D915D916D917C911797FD014083FD
:10031000518362837383408551856285738514960A
:100320004D935D936D937C931797F3018480958033
:10033000A680B78080829182A282B382C084D18459
:10034000E284F384C482D582E682F782682F70E06B
:1003500080E090E00E94430469837A838B839C83CE
:10036000D30118966D937D938D939C931B97F10108
:1003700084819581A681B781BC01CD019058AD8162
:10038000BE8114962D913D914D915C9117970E94DD
:10039000D1042B013C01ED81FE812081318142811C
:1003A0005381D1016D917D918D919C910E94D104D9
:1003B0009B01AC01C301B2010E9435032B013C013A
:1003C000F801208531854285538569817A818B8149
:1003D0009C810E94D1049B01AC01C301B2010E9427
:1003E00036032B013C01D80114962D913D914D917E
:1003F0005C911797C701B6010E94D1049B01AC0123
:10040000C301B2010E9436036B017C01F801208117
:10041000318142815381C501B4010E94D1049B0105
:10042000AC01C701B6010E943603AD81BE811896AA
:100430006D937D938D939C931B9726960FB6F8949E
:10044000DEBF0FBECDBFDF91CF911F910F91FF9007
:10045000EF90DF90CF90BF90AF909F908F907F9064
:100460006F905F904F903F902F9008959B01AC014B
:100470000E9436032BED3FE049E450E40E94D10492
:100480000895ECE7F0E09081907E90839081892B35
:100490008083EAE7F0E0808180648083808186FD4C
:1004A000FDCF8091780090E090931301809312012A
:1004B0002091790030E03093170120931601322FFC
:1004C0002227822B932B089580E480937C0086E87A
:1004D00080937A00089582E08093B00084E0809356
:1004E000B100809370001092B2008DE78093B3004A
:1004F000089583E284BD81E085BD0895559A219ACF
:1005000008950E9464020E9479020E946B020E9478
:100510007E0281E88093800089E080938100789456
:10052000089590E080E80FB6F8948093610090936E
:1005300061000FBE8CE090E00E94DF0590933101D6
:10054000809330018CE090E00E94DF0590931901C8
:100550008093180160E070E088E492E40E94360223
:100560002B013C0160E070E080E291E40E943602E1
:100570007B018C0160911801709119018EE191E06D
:100580009F938F930F2EF6E08F2EF1E09F2EF02D8C
:100590000F2EFFE6AF2EF2E1BF2EF3E8CF2EFAE3E7
:1005A000DF2EF02DA3019201809130019091310155
:1005B0000E9465000E948102279A269A0F900F9050
:1005C000FFCF1F920F920FB60F9211240F931F931C
:1005D0002F933F934F935F936F937F938F939F934B
:1005E000AF93BF93CF93DF93EF93FF9300911801E5
:1005F00010911901C0913001D091310180E00E9429
:10060000410299230CF403969595879595958795C6
:100610009E014EE151E066E071E00E9464010E949B
:10062000140470E07093890060938800FF91EF914B
:10063000DF91CF91BF91AF919F918F917F916F91FA
:100640005F914F913F912F911F910F910F900FBE8E
:100650000F901F9018951F920F920FB60F921124B2
:100660000F900FBE0F901F9018955058BB27AA27C8
:100670000E944D030C9497040E94890438F00E9454
:10068000900420F039F49F3F19F426F40C9486046A
:100690000EF4E095E7FB0C948004E92F0E94A80477
:1006A00058F3BA17620773078407950720F079F4A7
:1006B000A6F50C94CA040EF4E0950B2EBA2FA02DCB
:1006C0000B01B90190010C01CA01A0011124FF27FF
:1006D000591B99F0593F50F4503E68F11A16F040FA
:1006E000A22F232F342F4427585FF3CF46953795F9
:1006F0002795A795F0405395C9F77EF41F16BA0BBE
:10070000620B730B840BBAF09150A1F0FF0FBB1F6B
:10071000661F771F881FC2F70EC0BA0F621F731FB4
:10072000841F48F4879577956795B795F7959E3F11
:1007300008F0B0CF9395880F08F09927EE0F9795A2
:10074000879508950E94B6030C9497040E94900424
:1007500058F00E94890440F029F45F3F29F00C947E
:10076000800451110C94CB040C9486040E94A804BC
:1007700068F39923B1F3552391F3951B550BBB27D0
:10078000AA2762177307840738F09F5F5F4F220F15
:10079000331F441FAA1FA9F335D00E2E3AF0E0E80C
:1007A00032D091505040E695001CCAF72BD0FE2F56
:1007B00029D0660F771F881FBB1F261737074807EA
:1007C000AB07B0E809F0BB0B802DBF01FF279358A2
:1007D0005F4F3AF09E3F510578F00C9480040C94E2
:1007E000CB045F3FE4F3983ED4F386957795679505
:1007F000B795F7959F5FC9F7880F911D96958795D7
:1008000097F90895E1E0660F771F881FBB1F6217F5
:1008100073078407BA0720F0621B730B840BBA0BB3
:10082000EE1F88F7E09508950E94B00488F09F5766
:1008300098F0B92F9927B751B0F0E1F0660F771F04
:10084000881F991F1AF0BA95C9F714C0B13091F0FA
:100850000E94CA04B1E008950C94CA04672F782F4F
:100860008827B85F39F0B93FCCF3869577956795BF
:10087000B395D9F73EF490958095709561957F4F2B
:100880008F4F9F4F0895E89409C097FB3EF49095D1
:100890008095709561957F4F8F4F9F4F9923A9F059
:1008A000F92F96E9BB279395F695879577956795E8
:1008B000B795F111F8CFFAF4BB0F11F460FF1BC02C
:1008C0006F5F7F4F8F4F9F4F16C0882311F096E9BF
:1008D00011C0772321F09EE8872F762F05C066236D
:1008E00071F096E8862F70E060E02AF09A95660F26
:1008F000771F881FDAF7880F9695879597F90895DF
:1009000097F99F6780E870E060E008959FEF80ECC2
:10091000089500240A941616170618060906089565
:1009200000240A9412161306140605060895092ECB
:100930000394000C11F4882352F0BB0F40F4BF2B3A
:1009400011F460FF04C06F5F7F4F8F4F9F4F08957A
:1009500057FD9058440F551F59F05F3F71F0479570
:10096000880F97FB991F61F09F3F79F08795089555
:10097000121613061406551FF2CF4695F1DF08C074
:10098000161617061806991FF1CF86957105610591
:1009900008940895E894BB2766277727CB0197F939
:1009A00008950E94E4040C9497040E94890438F08E
:1009B0000E94900420F0952311F00C9480040C9474
:1009C000860411240C94CB040E94A80470F3959F14
:1009D000C1F3950F50E0551F629FF001729FBB2736
:1009E000F00DB11D639FAA27F00DB11DAA1F649FD2
:1009F0006627B00DA11D661F829F2227B00DA11D85
:100A0000621F739FB00DA11D621F839FA00D611D0A
:100A1000221F749F3327A00D611D231F849F600D2B
:100A2000211D822F762F6A2F11249F5750409AF054
:100A3000F1F088234AF0EE0FFF1FBB1F661F771FE0
:100A4000881F91505040A9F79E3F510580F00C94AB
:100A500080040C94CB045F3FE4F3983ED4F3869576
:100A600077956795B795F795E7959F5FC1F7FE2B4B
:100A7000880F911D9695879597F90895DF93D92F43
:100A80000E947905E695D7952AED3FE049E45FE3BA
:100A9000B33A6207730784079507D7953AF0A2EA3D
:100AA00049EC90680E944D030E949704E8E6F0E04C
:100AB0000E946305DD0F13F00E94A205DD0F0BF409
:100AC0009058DF9108959F938F937F936F93FF9337
:100AD000EF939B01AC010E94D104EF91FF910E9422
:100AE000B8052F913F914F915F910C94D1040C94D4
:100AF00086040E94B004D8F3E894E0E0BB279F5737
:100B0000F0F02AED3FE049EC06C0EE0FBB0F661F88
:100B1000771F881F28F0B23A62077307840728F00E
:100B2000B25A620B730B840BE3959A9572F7803877
:100B300030F49A95BB0F661F771F881FD2F7904835
:100B40000C94AC059B01AC0160E070E080E89FE391
:100B50000C94A2039F3F31F0915020F48795779534
:100B60006795B795880F911D9695879597F9089584
:100B7000DF93CF931F930F93FF92EF92DF927B014E
:100B80008C01689406C0DA2EEF010E94E404FE0195
:100B9000E894A5912591359145915591A6F3EF01E2
:100BA0000E944D03FE019701A801DA9469F7DF90D6
:100BB000EF90FF900F911F91CF91DF9108950F93C8
:100BC0001F93CF93DF938230910510F482E090E081
:100BD000E0913A01F0913B0120E030E0A0E0B0E08C
:100BE000309719F1408151810281138148175907CB
:100BF000C8F08417950769F4109731F012960C939A
:100C0000129713961C9327C000933A0110933B014F
:100C100022C02115310519F04217530718F49A0123
:100C2000BD01EF01DF01F801DBCF21153105F9F03E
:100C3000281B390B2430310580F48A819B81611592
:100C4000710521F0FB019383828304C090933B01E3
:100C500080933A01FE01329644C0FE01E20FF31F79
:100C60008193919322503109398328833AC020918E
:100C7000380130913901232B41F420910201309148
:100C80000301309339012093380120910001309104
:100C900001012115310541F42DB73EB74091040102
:100CA00050910501241B350BE0913801F091390179
:100CB000E217F307A0F42E1B3F0B2817390778F033
:100CC000AC014E5F5F4F2417350748F04E0F5F1F92
:100CD00050933901409338018193919302C0E0E031
:100CE000F0E0CF01DF91CF911F910F910895CF9345
:100CF000DF93009709F481C0FC01329713821282BE
:100D0000A0913A01B0913B01109781F4208131818B
:100D1000820F931F2091380130913901281739072C
:100D200051F5F0933901E093380167C0ED0120E0FF
:100D300030E0CE17DF0740F44A815B819E01411508
:100D40005105F1F0EA01F5CFD383C283408151818F
:100D5000840F951FC817D90759F488819981840F8A
:100D6000951F0296918380838A819B8193838283DE
:100D70002115310529F4F0933B01E0933A013DC080
:100D8000E901FB83EA8349915991C40FD51FEC1700
:100D9000FD0761F480819181840F951F0296E9011E
:100DA00099838883828193819B838A83E0E0F0E04A
:100DB00012968D919C911397009719F0FD01DC011B
:100DC000F7CF8D919C9111979D012E5F3F4F820F20
:100DD000931F20913801309139012817390769F4A0
:100DE000309729F410923B0110923A0102C013820D
:100DF0001282B0933901A0933801DF91CF91089509
:040E0000F894FFCF94
:060E040000003C0120008B
:00000001FF
