S01300006E6F74636846696C7465722E737265638F
S11300000C9421020C943E020C943E020C943E0289
S11300100C943E020C943E020C943E020C943E025C
S11300200C94EE090C943E020C943E020C943E0295
S11300300C943E020C943E020C943E020C943E023C
S11300400C943E020C943E020C943E020C943E022C
S11300500C943E020C943E020C943E020C943E021C
S11300600C943E020C943E02084AD73B3BCE016EF0
S113007084BCBFFDC12F3D6C74319ABD56833DDAFB
S11300803D00C77F11BED9E4BB4C3E916BAAAABE0A
S1130090000000803F08000000BE922449123EABDD
S11300A0AAAA2ABECDCCCC4C3E00000080BEABAA8E
S11300B0AAAA3E00000000BF000000803F0000002C
S11300C00000084178D3BB4387D1133D190E3CC3CC
S11300D0BD4282AD2B3E68EC8276BED98FE1A93E4B
S11300E04C80EFFFBE01C4FF7F3F0000000000060C
S11300F064EC1B3C04BC163E3BE5B93CC93C37C22E
S11301009E5A3D660498083EEA69AAAA3E00000089
S1130110803F07634236B79BD8A71A39685618AE92
S1130120BAAB558C1D3CB7CC5763BD6DEDFD753E28
S1130130F6177231BF000000803F0000000000008D
S1130140000000005F00000000000000070007003E
S1130150000000147F147F14000000242A7F2A1258
S11301600000002313086462000000364955225041
S113017000000000050300000000001C22410000F4
S113018000000041221C0000000000082A1C2A086C
S113019000000008083E0808000000A060000000FD
S11301A00000000808080808000000606000000063
S11301B000000020100804020000003E5149453EA2
S11301C000000000427F400000000062514949469F
S11301D000000022414949360000001814127F1023
S11301E000000027454545390000003C4A49493094
S11301F00000000171090503000000364949493631
S1130200000000064949291E00000000363600009F
S113021000000000AC6C0000000000081422410043
S113022000000014141414140000004122140800E7
S11302300000000201510906000000324979413EE4
S11302400000007E0909097E0000007F4949493603
S11302500000003E414141220000007F4141221C38
S11302600000007F494949410000007F0909090154
S11302700000003E414151720000007F0808087FE1
S1130280000000417F4100000000002040413F0188
S11302900000007F081422410000007F40404040DD
S11302A00000007F020C027F0000007F0408107F22
S11302B00000003E4141413E0000007F090909065B
S11302C00000003E4151215E0000007F09192946CB
S11302D0000000264949493200000001017F010164
S11302E00000003F4040403F0000001F2040201F0E
S11302F00000003F4038403F0000006314081463CE
S113030000000003047804030000006151494543E0
S11303100000007F4141000000000002040810209A
S113032000000041417F00000000000402010204BB
S11303300000008080808080000000010204000032
S113034000000020545454780000007F484444388E
S11303500000003844442800000000384444487F2A
S11303600000003854545418000000087E090200AC
S113037000000018A4A4A47C0000007F08040478F2
S1130380000000007D00000000000080847D00006B
S11303900000007F10284400000000417F4000005E
S11303A00000007C041804780000007C08047C0031
S11303B00000003844443800000000FC24241800E5
S11303C0000000182424FC00000000007C08040045
S11303D00000004854542400000000047F4400003E
S11303E00000003C40407C000000001C2040201C19
S11303F00000003C4030403C0000004428102844E9
S11304000000001CA0A07C000000004464544C4484
S11304100000000836410000000000007F000000DA
S11304200000004136080000000000020101020142
S11304300000000205050200000000FFFFFFFFFFAF
S1130440000011241FBECFEFD8E0DEBFCDBF11E006
S1130450A0E0B1E0E0E0F8E302C005900D92AA3A12
S1130460B107D9F722E0AAEAB1E001C01D92AF308A
S1130470B207E1F70E94EC110C94FE1B0C940000EF
S11304802F923F924F925F926F927F928F929F92A0
S1130490AF92BF92CF92DF92EF92FF920F931F938E
S11304A0CF93DF93CDB7DEB766970FB6F894DEBF70
S11304B00FBECDBF9A8789871B0129013A01EF86B8
S11304C0F88A098B1A8BA6019501C301B2010E9417
S11304D05C1820E030E040E05FE30E945C180E947A
S11304E087196B017C019B01AC010E945C184B01D4
S11304F05C01A3019201C301B2010E945C186983EB
S11305007A838B839C839B01AC01C501B4010E9457
S11305105C186B877C878D879E879B01AC01698102
S11305207A818B819C810E94FF146B8B7C8B8D8BD9
S11305309E8BA3019201C301B2010E94FF14A30187
S113054092010E945C186D837E838F8398879B0140
S1130550AC01C501B4010E945C182D813E814F811C
S113056058850E94FE146D837E838F8398872F8520
S1130570388949895A89C301B2010E945C18A701CC
S113058096010E945C184B015C019B01AC016981DE
S11305907A818B819C810E94FF142B853C854D853B
S11305A05E850E94FF146B017C01A50194016981A1
S11305B07A818B819C810E94FE142B853C854D851C
S11305C05E850E94FF1469837A838B839C83A701D1
S11305D096016B897C898D899E890E949F154B01A8
S11305E05C01A70196016D817E818F8198850E94AF
S11305F09F152B013C01F10180829182A282B3827A
S1130600648375838683978380869186A286B38666
S1130610A701960169817A818B819C810E949F1533
S1130620E985FA856083718382839383448255824A
S113063066827782A7019601C701B6010E949F15C1
S1130640E985FA85608771878287938766960FB6F6
S1130650F894DEBF0FBECDBFDF91CF911F910F91F4
S1130660FF90EF90DF90CF90BF90AF909F908F90CE
S11306707F906F905F904F903F902F9008952F92AE
S11306803F924F925F926F927F928F929F92AF921E
S1130690BF92CF92DF92EF92FF920F931F93CF936B
S11306A0DF9300D000D000D0CDB7DEB73B015E832E
S11306B04D831901DA0114964D915D916D917C91F0
S11306C01797FD014083518362837383408551856D
S11306D06285738514964D935D936D937C93179700
S11306E0F30184809580A680B78080829182A28263
S11306F0B382C084D184E284F384C482D582E68246
S1130700F782682F70E080E090E00E9447166983CA
S11307107A838B839C83D30118966D937D938D93F9
S11307209C931B97F10184819581A681B781BC01BB
S1130730CD019058AD81BE8114962D913D914D917E
S11307405C9117970E945C182B013C01ED81FE819E
S11307502081318142815381D1016D917D918D91AF
S11307609C910E945C189B01AC01C301B2010E94E0
S1130770FE142B013C01F801208531854285538507
S113078069817A818B819C810E945C189B01AC01F8
S1130790C301B2010E94FF142B013C01D80114963D
S11307A02D913D914D915C911797C701B6010E941F
S11307B05C189B01AC01C301B2010E94FF146B01E0
S11307C07C01F8012081318142815381C501B4014A
S11307D00E945C189B01AC01C701B6010E94FF1482
S11307E0AD81BE8118966D937D938D939C931B97D9
S11307F026960FB6F894DEBF0FBECDBFDF91CF9122
S11308001F910F91FF90EF90DF90CF90BF90AF902A
S11308109F908F907F906F905F904F903F902F901C
S113082008959B01AC010E94FF142BED3FE049E4C5
S113083050E40E945C18089520E030E040E05FE35B
S11308400E945C182BED3FE049E450E40E949F15A0
S11308500895ECE7F0E09081907E90839081892B5D
S11308608083EAE7F0E0808180648083808186FD74
S1130870FDCF8091780090E09093CB018093CA01E2
S11308802091790030E03093CF012093CE01322FB4
S11308902227822B932B089580E480937C0086E8A2
S11308A080937A00089582E08093B00084E080937E
S11308B0B100809370001092B2008DE78093B30072
S11308C00895219A81E88093800089E080938100D3
S11308D00895559A08950E944C040E9461040E9450
S11308E053040E9469043D98459A3C9A789408956B
S11308F08CE284B980E58CBD81E08DBD08958EBD08
S11309000DB407FEFDCF8EB50895559A5D980895F0
S1130910559A5D9A0895569A5E980895569A5E9AE5
S11309200895579A5F9A0895549A5C9A0895549A30
S11309305C980895CF93C82F0E948B040E9485046D
S11309408C2F0E947F040E948804CF910895CF9336
S1130950C82F0E948E040E9485048C2F0E947F045D
S11309600E948804CF910895CF93DF93C82FD92F85
S11309700E948E040E9485048D2F0E947F048C2F78
S11309800E947F040E948804DF91CF9108950F9301
S11309901F93CF93DF938C01EB018AE20E949A04A8
S11309A0C8010E94B404CE010E94B404DF91CF9127
S11309B01F910F9108950F931F93CF93DF938C0191
S11309C0EB018BE20E949A04C8010E94B404CE0198
S11309D00E94B404DF91CF911F910F9108958093E9
S11309E0E20181110DC080EF90E09093D3018093D8
S11309F0D20180E491E09093FE018093FD0108957B
S1130A00813061F480E491E09093D3018093D2012A
S1130A1080EF90E09093FE018093FD010895CF93C1
S1130A20DF93EB01BC010E94C704BE01CE010E940A
S1130A30DB048CE20E949A04DF91CF910895CF9356
S1130A40DF93FC019B01EA019091E201911107C03F
S1130A50CF010E940F05CE010E94B4040EC0913054
S1130A6061F46091D2017091D3016E1B7F0BC901B7
S1130A700E940F05CE010E94B404DF91CF91089526
S1130A802F923F924F925F926F927F928F929F929A
S1130A90AF92BF92CF92DF92EF92FF920F931F9388
S1130AA0CF93DF9300D000D000D0CDB7DEB79E83C4
S1130AB08D837B013A0129011A830983C901861BAD
S1130AC0970B9A014D815E81241B350B890122F419
S1130AD000271127021B130B2D813E812615370594
S1130AE020F0AA24AA94BA2C03C0AA24A394B12C5B
S1130AF06C01992324F4CC24DD24C81AD90ADC829D
S1130B00CB82D194C194D108E414F50420F0882454
S1130B108A94982C03C088248394912C18014B81C7
S1130B205C81241A350A49815A81B7018D819E81DD
S1130B300E941F05C101880F991F8C159D056CF03B
S1130B402D813E812615370599F04B815C81241A4D
S1130B50350A2A0D3B1D3E832D83081719071CF304
S1130B60E414F50429F0200E311EE80CF91CDBCF47
S1130B7026960FB6F894DEBF0FBECDBFDF91CF919E
S1130B801F910F91FF90EF90DF90CF90BF90AF90A7
S1130B909F908F907F906F905F904F903F902F9099
S1130BA00895CF92DF92EF92FF920F931F93CF930A
S1130BB0DF936C01EB018A0179018091E2018111DB
S1130BC01AC0B601640F751FC6010E94C704BE0196
S1130BD0CE010E94DB048CE20E949A0401151105E7
S1130BE049F1C0E0D0E0C7010E94B4042196C017C7
S1130BF0D107C9F71FC08130E9F4CB010E94C704B3
S1130C008091D2019091D3018C199D09BC01801B64
S1130C10910B0E94DB048CE20E949A0401151105D9
S1130C2049F0C0E0D0E0C7010E94B40421960C173B
S1130C301D07C9F7DF91CF911F910F91FF90EF909E
S1130C40DF90CF900895AF92BF92CF92DF92EF9250
S1130C50FF920F931F93CF93DF932115310581F0FA
S1130C606A01EB015C017901E60EF71E9801A60109
S1130C70BE01C5010E94D1052196EC16FD06B1F70F
S1130C80DF91CF911F910F91FF90EF90DF90CF9064
S1130C90BF90AF9008952F923F924F925F926F92C0
S1130CA07F928F929F92AF92BF92CF92DF92EF92F8
S1130CB0FF920F931F93CF93DF9300D000D0CDB753
S1130CC0DEB749835A836901280190EE980F903664
S1130CD008F08FE1282E312CC101880F991F880F4D
S1130CE0991F880F991F9C01265C3F4F3901C10150
S1130CF0880F991F880F991F880F991FFC01EE5BBD
S1130D00FF4F1F01862E972EF301A490E980FA80ED
S1130D101C821B82B12CC5010B8002C0959587955E
S1130D200A94E2F780FF07C082019601A601B70189
S1130D30C4010E9423062B813C812F5F3F4F3C83DB
S1130D402B83EC0CFD1C2830310529F73FEF631A87
S1130D50730A8C0C9D1C62147304B1F60F900F90EF
S1130D600F900F90DF91CF911F910F91FF90EF9013
S1130D70DF90CF90BF90AF909F908F907F906F90B7
S1130D805F904F903F902F9008956F927F928F9233
S1130D909F92AF92BF92CF92DF92EF92FF920F9306
S1130DA01F93CF93DF93EB015A0169013801490185
S1130DB0880C991C820E931E880C991C7C010CC013
S1130DC083019601A501BE010E944B06CF3381E049
S1130DD0D80710F4C80DD91DF70181917F01811145
S1130DE0EFCFDF91CF911F910F91FF90EF90DF90A4
S1130DF0CF90BF90AF909F908F907F906F90089509
S1130E002F923F924F925F926F927F928F929F9216
S1130E10AF92BF92CF92DF92EF92FF920F931F9304
S1130E20CF93DF93CDB7DEB72A970FB6F894DEBF22
S1130E300FBECDBF2B013C016A01190158014701C6
S1130E401A821982FE01339688E0DF011D928A9589
S1130E50E9F777205CF587019501A101B6018DE2E0
S1130E600E944B067094609450944094411C511C11
S1130E70611C711CBFE3CB16B1E0DB0660F4C50155
S1130E80880F991F8A0D9B1D880F991FC80ED91EA4
S1130E90EE24E39404C0EE24E39401C0E12C141482
S1130EA015041604170484F08E2D4EC04114510409
S1130EB06104710499F787019501A101B60180E3EA
S1130EC00E944B0681E040C080E0FF24F394F80EBA
S1130ED001E010E00C0F1D1F080F111DC301B2012A
S1130EE02AE030E040E050E00E94881AF801608374
S1130EF0422E532E642E752E8F2D141415041604B1
S1130F0017041CF3EF0CFF20F1F03501660C771C7D
S1130F106A0C7B1C660C771CFE01EF0DF11D8081B1
S1130F2084019501A101B601805D0E944B06FFE397
S1130F30CF16F1E0DF0610F4C60CD71CFA94F110BA
S1130F40EBCF8E2D01C08E2D2A960FB6F894DEBFFE
S1130F500FBECDBFDF91CF911F910F91FF90EF9006
S1130F60DF90CF90BF90AF909F908F907F906F90C5
S1130F705F904F903F902F9008952F923F924F9201
S1130F805F926F927F928F929F92AF92BF92CF9215
S1130F90DF92EF92FF920F931F93CF93DF9300D0D2
S1130FA000D000D0CDB7DEB72B013C015A01490176
S1130FB01E830D831601EF2899F120E030E0A9018A
S1130FC00E949A158823B4F486012D813E81A401E0
S1130FD0B50180E191E00E94C5068D819E81880F54
S1130FE0991F2D813E81820F931F880F991FA80E90
S1130FF0B91E32C086012D813E81A401B50182E172
S113100091E00E94C5068D819E81880F991FAD8154
S1131010BE818A0F9B1F880F991FA80EB91E1CC082
S113102020E030E0A9010E949A158823ACF48601DF
S11310302D813E81A401B50180E191E00E94C506A5
S11310408D819E81880F991F2D813E81820F931F70
S1131050880F991FA80EB91E73016201E894F7F86E
S1131060C701B6010E9411162B013C0120E030E0BB
S113107040E85FE3C701B6010E94A61620E030E411
S11310804CE156E40E945C180E94111669837A832D
S11310908B839C83B201552024F466277727641937
S11310A07509072E000C880B990B0E9449160E94A3
S11310B004180E948416411451046104710451F00F
S11310C020E030E040E85FE30E94FF140E94111624
S11310D06B0103C0CC24C394D12C71010D811E81FA
S11310E09401A501C301B2010E94000789819A817C
S11310F0AB81BC81181619061A061B0644F5ED804F
S1131100FE80EE0CFF1CAD81BE81EA0EFB1EEE0CD0
S1131110FF1CCE9CA001CF9C500DDE9C500D1124D1
S1131120A40EB51E81019D01A401B50184E191E0E5
S11311300E94C506A5014E0D5F1D71010D811E8122
S1131140940169817A818B819C810E940007269693
S11311500FB6F894DEBF0FBECDBFDF91CF911F91C4
S11311600F91FF90EF90DF90CF90BF90AF909F9042
S11311708F907F906F905F904F903F902F90089545
S11311800F931F932091FD013091FE014091D201F4
S11311905091D3018C0160E070E080E090E00E9407
S11311A023061F910F9108950E9478040E948804D9
S11311B00E948E040E9497048FE19EE40197F1F748
S11311C000C000000E94940481E00E94EF048BECB4
S11311D00E949A0489E30E94A7048CE20E94A70457
S11311E080E00E94A70484E30E94A70482E00E9496
S11311F0A7048FEC0E949A0480E00E94A70481EC6B
S11312000E94A70480E30E94A70488EE0E949A0427
S113121085E80E94A70480E00E94A70488E70E9452
S1131220A7048AEE0E949A0480E00E94A70480E04A
S11312300E94A7048DEE0E949A0484E60E94A704EB
S113124083E00E94A70482E10E94A70481E80E942F
S1131250A70487EF0E949A0480E20E94A70480EC0E
S11312600E949A0483E20E94A70481EC0E949A04DB
S113127080E10E94A70485EC0E949A048EE30E94F8
S1131280A70488E20E94A70487EC0E949A0486E8D7
S11312900E94A70486E30E949A0488E40E94A7049B
S11312A08AE30E949A0485E50E94A70481EB0E94C8
S11312B09A0480E00E94A70488E10E94A70486EBB8
S11312C00E949A0488E00E94A70482E80E94A7046E
S11312D087E20E94A70482EF0E949A0480E00E94A1
S11312E0A70486E20E949A0481E00E94A70480EE8B
S11312F00E949A048FE00E94A70481E30E94A7043D
S11313008BE20E94A7048CE00E94A7048EE00E9456
S1131310A70488E00E94A7048EE40E94A70481EF3A
S11313200E94A70487E30E94A70487E00E94A70401
S113133080E10E94A70483E00E94A7048EE00E943B
S1131340A70489E00E94A70480E00E94A70481EE1C
S11313500E949A0480E00E94A7048EE00E94A704E1
S113136084E10E94A70483E00E94A70481E10E9413
S1131370A70487E00E94A70481E30E94A70481ECEC
S11313800E94A70488E40E94A70488E00E94A7049E
S11313908FE00E94A7048CE00E94A70481E30E94CE
S11313A0A70486E30E94A7048FE00E94A70481E1BA
S11313B00E949A049FEF2DEE82E0915020408040DD
S11313C0E1F700C0000089E20E949A048CE20E94C6
S11313D09A048FEF9FEF0E94C00808951F920F9206
S11313E00FB60F9211240F931F932F933F934F9394
S11313F05F936F937F938F939F93AF93BF93CF9399
S1131400DF93EF93FF930091D0011091D101C0912C
S11314100102D091020280E00E94290499230CF475
S1131420039695958795959587959E0149EE51E08C
S11314306EEB71E00E943F030E94181670E07093F7
S113144089006093880098B182E0892788B9FF9168
S1131450EF91DF91CF91BF91AF919F918F917F9148
S11314606F915F914F913F912F911F910F910F9029
S11314700FBE0F901F901895CF92DF92EF92FF92BC
S11314800F931F93CF93DF931092040210920302E1
S11314904091D2015091D30100EE1FEF20E330E0E0
S11314A060E070E080E090E00E94230600E010E03D
S11314B023E030E040E050E060E070E086E191E05D
S11314C00E94C50622E030E04CE150E060E070E0AC
S11314D08EE191E00E94C506C0E3D0E0D0930402FF
S11314E0C093030221E030E04AEE50E060E070E097
S11314F083E391E00E94C5064091030250910402E7
S1131500465F5F4F509304024093030222E030E0B1
S113151060E070E085E591E00E94C5064091030219
S1131520509104024F5E5F4F5093040240930302B4
S11315305093F6014093F50110920A0210920902A9
S1131540509308024093070280E690E09093E101F3
S11315508093E00122E030E060E070E088E691E012
S11315600E94C506409103025091040222E030E03B
S113157068E770E082E791E00E94C50640910302AB
S113158050910402425E5F4F509304024093030261
S113159022E030E060E070E085E791E00E94C5065B
S11315A040910302509104024F5E5F4F5093040236
S11315B040930302509300024093FF0110920602ED
S11315C0109205025093F8014093F701D093E8017B
S11315D0C093E70122E030E060E070E088E891E049
S11315E00E94C506409103025091040222E030E0BB
S11315F068E470E082E791E00E94C506409103022E
S113160050910402425E5F4F5093040240930302E0
S113161022E030E060E070E08EE891E00E94C506D0
S11316204091030250910402485D5F4F50930402BD
S11316304093030222E030E060E070E083EA91E04E
S11316400E94C506209103023091040226503109FC
S1131650E091D001F091D1016085718582859385F7
S1131660C12CD12CE12CF12C01E010E04CE350E032
S11316700E94BD07209103023091040226503109D3
S1131680E091D001F091D1016481758186819781C7
S1131690EE24E394F12C46E650E00E94BD0720912D
S11316A003023091040226503109E091D001F091F7
S11316B0D101608171818281938140E950E00E946F
S11316C0BD072091030230910402275F3F4FE09150
S11316D00102F09102026085718582859385E12C77
S11316E0F12C4CE350E00E94BD072091030230919D
S11316F00402275F3F4FE0910102F09102026481EE
S1131700758186819781EE24E394F12C46E650E0BE
S11317100E94BD072091030230910402275F3F4FCE
S1131720E0910102F09102026081718182819381D2
S113173040E950E00E94BD076091030270910402E9
S11317406A5F7F4F00E010E09B0144EB50E08CE3C4
S113175090E00E944005DF91CF911F910F91FF907F
S1131760EF90DF90CF9008952F923F924F925F9227
S11317706F927F928F929F92AF92BF92CF92DF929D
S1131780EF92FF920F931F93CF93DF93CDB7DEB702
S11317902C970FB6F894DEBF0FBECDBF0091D001D9
S11317A01091D101209101023091020244ED51E0E7
S11317B062EB71E081E00E943F0320E030E04AEFF9
S11317C053E40E945C189B01AC0160E070E080EF80
S11317D092E40E94FE14762E672E582E492E00E0C5
S11317E018EF20EF30E048E250E060E070E088E27B
S11317F090E00E94400587E191E09C878B87C12C93
S1131800D12C76010091D0011091D10120910102D7
S11318103091020244ED51E062EB71E081E00E94FC
S11318203F0320E030E04AEF53E40E945C189B0140
S1131830AC0160E070E080EF92E40E94FE14362E6A
S1131840272E89839A8320E030E040E252E4C701E6
S1131850B6010E94FF144B015C01632D722D898136
S11318609A810E9418166B837C838D839E8320E06B
S113187030E040E85FE3C501B4010E94FF140E9418
S113188018166F83788789879A87672D762D852D1B
S1131890942D0E9418162B013C01C501B4010E942D
S11318A01816DC01CB0100E010E02B813C814F8154
S11318B05885B2010E94400520E030E040E85FE333
S11318C0C701B6010E94FF146B017C018B859C85C6
S11318D001979C878B87732C622C59804A80892BB3
S11318E009F090CFE4EDF1E01082118212821382AC
S11318F01482158216821782108611861286138628
S11319002C960FB6F894DEBF0FBECDBFDF91CF91FA
S11319101F910F91FF90EF90DF90CF90BF90AF9009
S11319209F908F907F906F905F904F903F902F90FB
S113193008952F923F924F925F926F927F928F926F
S11319409F92AF92BF92CF92DF92EF92FF920F934A
S11319501F93CF93DF93CDB7DEB7A7970FB6F89455
S1131960DEBF0FBECDBF6091F9017091FA01809185
S1131970FB019091FC010E941C046093F901709397
S1131980FA018093FB019093FC016091E301709153
S1131990E4018091E5019091E6010E941C046093AA
S11319A0E3017093E4018093E5019093E60100E084
S11319B010E028E730E040E451E068E770E084E1BB
S11319C090E00E94400523E730E044E150E06DE7F9
S11319D070E084E190E00E944005E12CF12C01E0EC
S11319E010E022E830E044E150E060E070E0CB0138
S11319F00E94000700E010E023E730E048E250E0F6
S1131A006DE770E088E290E00E94400501E010E09C
S1131A1022E830E048E250E064E170E080E090E0E9
S1131A200E94000700E010E023E730E04CE350E0C0
S1131A306DE770E08CE390E00E94400501E010E067
S1131A4022E830E04CE350E068E270E080E090E0AF
S1131A500E94000700E010E023E730E040E550E09A
S1131A606DE770E080E590E00E94400501E010E041
S1131A7022E830E040E550E06CE370E080E090E084
S1131A800E94000700E010E023E730E044E650E065
S1131A906DE770E084E690E00E94400501E010E00C
S1131AA022E830E044E650E060E570E080E090E059
S1131AB00E94000700E010E023E730E048E750E030
S1131AC06DE770E088E790E00E94400501E010E0D7
S1131AD022E830E048E750E064E670E080E090E01F
S1131AE00E94000700E010E023E730E04CE850E0FB
S1131AF06DE770E08CE890E00E94400501E010E0A2
S1131B0022E830E04CE850E068E770E080E090E0E4
S1131B100E94000700E010E023E730E040EA50E0D4
S1131B206DE770E080EA90E00E94400501E010E07B
S1131B3022E830E040EA50E06CE870E080E090E0B9
S1131B400E94000700E010E023E730E044EB50E09F
S1131B506DE770E084EB90E00E94400501E010E046
S1131B6022E830E044EB50E060EA70E080E090E08E
S1131B700E94000700E010E023E730E048EC50E06A
S1131B806DE770E088EC90E00E94400501E010E011
S1131B9022E830E048EC50E064EB70E080E090E054
S1131BA00E94000700E010E023E730E04CED50E035
S1131BB06DE770E08CED90E00E94400501E010E0DC
S1131BC022E830E04CED50E068EC70E080E090E01A
S1131BD00E94000700E010E023E730E040EF50E00F
S1131BE06DE770E080EF90E00E94400501E010E0B6
S1131BF022E830E040EF50E06CED70E080E090E0EF
S1131C000E94000700E010E023E730E044E051E0E8
S1131C106DE770E084E091E00E94400501E010E08F
S1131C2022E830E044E051E060EF70E080E090E0D2
S1131C300E94000700E010E023E730E048E151E0B3
S1131C406DE770E088E191E00E94400501E010E05A
S1131C5022E830E048E151E064E071E080E090E0A7
S1131C600E94000700E010E023E730E04CE251E07E
S1131C706DE770E08CE291E00E94400501E010E025
S1131C8022E830E04CE251E068E171E080E090E06D
S1131C900E94000700E010E023E730E040E451E058
S1131CA06DE770E080E491E00E94400501E010E0FF
S1131CB022E830E040E451E06CE271E080E090E042
S1131CC00E94000700E018EF20EF30E044E150E00C
S1131CD060E070E084E190E00E9440056091F901C9
S1131CE07091FA018091FB019091FC019B01AC0180
S1131CF00E945C186F87788B898B9A8B8091E301A3
S1131D009091E401A091E501B091E60188A399A323
S1131D10AAA3BBA3AFE3B1E0BE83AD83212C198694
S1131D201A86312C1B8ABCE3BC8B8CE18D8B96E428
S1131D309E8B1F8A188E198E1A8E1B861CE30CE14B
S1131D40A6E4AC8780E090E0A0E8BFE389839A83AF
S1131D50AB83BC83AFE3B1E0BD8FAC8F1D870E872F
S1131D6029813A814B815C81CA01B9010E945C18C6
S1131D709B01AC016F85788989899A890E94FE1438
S1131D802B013C0129813A814B815C8168A179A1B5
S1131D908AA19BA10E945C186B017C01A3019201A2
S1131DA0C301B2010E945C184B015C01A7019601BA
S1131DB0C701B6010E945C186D837E838F83988768
S1131DC02D813E814F815885C501B4010E94FF14C5
S1131DD00E9443199B01AC01C301B2019F770E9489
S1131DE09F150E94041820E030E040EA51E40E946C
S1131DF05C189F770E9419194B015C01A3019201A1
S1131E00C701B6010E949F150E946B1520E030E0C7
S1131E1044E353E40E945C182BED3FE049E450E4B2
S1131E200E949F150E94191920E030E044EB52E40F
S1131E300E94FF14162F072FF82EE92E24013501D6
S1131E40E89477F82FEF3FEF4FE75FE7C301B20164
S1131E500E94AC1981110AC02FEF3FEF4FE75FE7F3
S1131E60C301B2010E949A1518167CF02F89388D8F
S1131E70498D5A8DC501B4010E94F71718164CF408
S1131E808F8A988EA98EBA8E04C08F88988CA98C5C
S1131E90BA8C222D39854A85532D612F702F8F2DB1
S1131EA09E2D0E94F717181624F4212E0987FA860E
S1131EB03E2C2B893C894D895E89612F702F8F2D93
S1131EC09E2D0E949A15882324F41B8B0C8BFD8A6B
S1131ED0EE8A2B853D854E855C85C501B4010E9443
S1131EE09A15882324F48B869D86AE86BC8620E0D2
S1131EF030E040E85FE369817A818B819C810E94B4
S1131F00FF1469837A838B839C838C8D9D8D0197C9
S1131F109D8F8C8F892B09F023CF222D39854A85FB
S1131F20532D60E070E080EF92E40E949F156CA353
S1131F307DA38EA39FA32F89388D498D5A8D60E090
S1131F4070E088EC92E40E949F156C8F7D8F8E8FD9
S1131F509F8F20E030E040E85FE36F8578898989CE
S1131F609A890E94FE142B013C019B01AC010E9442
S1131F705C186B017C0128A139A14AA15BA1CA01AB
S1131F80B9010E945C184B015C01A5019401C701D1
S1131F90B6010E94FF140E9443199B01AC01C301C6
S1131FA0B2019F770E949F150E94041820E030E040
S1131FB040EA51E40E945C189F770E9419199B0122
S1131FC0AC016C8D7D8D8E8D9F8D0E945C1820E000
S1131FD030E040E251E40E94FF14162F072F8F8750
S1131FE09B8FA301920168A179A18AA19BA10E9460
S1131FF09F150E946B1520E030E044E353E40E94F7
S11320005C182BED3FE049E450E40E949F150E94C8
S113201019199B01AC016CA17DA18EA19FA10E9405
S11320205C1820E030E042E553E40E94FF142B8961
S11320303C894D895E890E94FE146B877C878D875D
S11320409E87AFE3B1E0BE83AD8380E090E0A0E87B
S1132050BFE389839A83AB83BC83AFE3B1E0B9A3C5
S1132060A8A304C0182D092DAF86BB8E6091F90179
S11320707091FA018091FB019091FC019B01AC01EC
S11320800E945C186B017C0129813A814B815C813F
S1132090CA01B9010E945C189B01AC01C701B601D9
S11320A00E94FE142B013C012091E3013091E401D4
S11320B04091E5015091E60169817A818B819C818F
S11320C00E945C186B017C01A3019201C301B2015F
S11320D00E945C184B015C01A7019601C701B6017F
S11320E00E945C186D837E838F8398872D813E8147
S11320F04F815885C501B4010E94FF140E94431901
S11321009B01AC01C301B2019F770E949F150E94FD
S1132110041820E030E040EA51E40E945C189F7704
S11321200E9419199B01AC016C8D7D8D8E8D9F8D44
S11321300E945C1820E030E040E251E40E94FF1469
S11321404B015C01A3019201C701B6010E949F15D6
S11321500E946B1520E030E044E353E40E945C18D5
S11321602BED3FE049E450E40E949F150E941919A9
S11321709B01AC016CA17DA18EA19FA10E945C1862
S113218020E030E042E553E40E94FF142B893C89AF
S11321904D895E890E94FE1469877A87282E392E1C
S11321A075016401E894F7F82FEF3FEF4FE75FE71D
S11321B0C701B6010E94AC19811116C02FEF3FEF81
S11321C04FE75FE7C701B6010E949A15181664F439
S11321D02C8D3D8D4E8D5F8D6F89788D898D9A8D77
S11321E00E945C184B015C0120E030E040EA51E4BD
S11321F069817A818B819C810E94FF146B017C012F
S11322000E9418166D837E838F83988720E030E0C8
S113221040E85FE3C701B6010E94FE140E9418164D
S11322206B017C01C501B4010E9418162B013C010D
S1132230612F702F8F859B8D0E94181600E010E08F
S113224092014D815E81C6010E94400569857A85AF
S1132250822D932D0E9418162B013C016B857C85E1
S11322608D859E850E94181692014D815E81C6015E
S11322700E94400520E030E040E85FE369817A8114
S11322808B819C810E94FF1469837A838B839C8356
S113229088A199A1019799A388A399859B87AA8569
S11322A0AC872D863E8688A199A1892B09F0DACEC8
S11322B000E018EF2AE030E049E150E06AE070E025
S11322C084E190E00E9440050F2EE12CF8EFFF2EF0
S11322D0F02D01E010E02AE030E040E050E060E062
S11322E070E0CB010E94000700E018EF24E630E024
S11322F049E150E064E670E084E190E00E9440052A
S113230001E010E024E630E040E050E062EF7FEFCF
S11323108FEF9FEF0E94000700E018EF21E930E003
S113232049E150E061E970E084E190E00E944005F9
S113233001E010E02CE830E040E050E06AE570E0B5
S113234080E090E00E94000700E018EF28EC30E005
S113235049E150E068EC70E084E190E00E944005BF
S113236001E010E028EC30E040E050E060E070E094
S1132370CB010E94000700E018EF20EF30E049E1B4
S113238050E060EF70E084E190E00E94400501E0DD
S113239010E026EE30E040E050E066EA7FEF8FEF99
S11323A09FEF0E940007A7960FB6F894DEBF0FBEFA
S11323B0CDBFDF91CF911F910F91FF90EF90DF90F0
S11323C0CF90BF90AF909F908F907F906F905F90D1
S11323D04F903F902F90089590E080E80FB6F894C6
S11323E080936100909361000FBE0E94D4080E9404
S11323F091048CE090E00E94DD1A90930202809395
S113240001028CE090E00E94DD1A9093D101809348
S1132410D00160E070E088E492E40E9411046093CB
S1132420F9017093FA018093FB019093FC0160E041
S113243070E080E291E40E9411047B018C016093BE
S1132440E3017093E4018093E5019093E601209108
S1132450F9013091FA014091FB015091FC01609126
S1132460D0017091D10189EE91E09F938F930F2E4B
S1132470FEEB8F2EF1E09F2EF02D0F2EF8E0AF2E05
S1132480F1E2BF2EF4E8CF2EFAE3DF2EF02D809197
S11324900102909102020E9440020E946B040E9479
S11324A03C0A399A0F900F90C4E6D0E066246394F6
S11324B0712C0F2EF9EE4F2EF1E05F2EF02D80914E
S11324C0AC019091AD01892B09F07DC283E00E949B
S11324D02904BE010E94741A7093B1016093B00183
S11324E0E091AE01F091AF016E177F0709F4B6C019
S11324F0809106019091070182309105A9F118F4A9
S1132500019749F0ABC08330910509F456C0049794
S113251009F47CC0A3C070930F0160930E01209155
S1132520F5013091F6014091090250910A02BF0170
S113253080E090E0EE24EA94FE2C02E010E00E9499
S113254000072091F5013091F60140910902509164
S11325500A0260910E0170910F0180E090E0E12C7D
S1132560F12C0E9400077AC070930D0160930C0156
S113257020910702309108024091E0015091E1015D
S1132580BF0180E090E0EE24EA94FE2C02E010E02B
S11325900E94000720910702309108024091E00157
S11325A05091E10160910C0170910D0180E090E087
S11325B0E12CF12C0E94000751C070930B01609331
S11325C00A012091FF0130910002409105025091CF
S11325D00602BF0180E090E0EE24EA94FE2C02E0C3
S11325E010E00E9400072091FF0130910002409109
S11325F005025091060260910A0170910B0180E07E
S113260090E0E12CF12C0E94000728C0709309018E
S1132610609308012091F7013091F8014091E7019E
S11326205091E801BF0180E090E0EE24EA94FE2C92
S113263002E010E00E9400072091F7013091F801B8
S11326404091E7015091E8016091080170910901FE
S113265080E090E0E12CF12C0E9400078091B00111
S11326609091B1019093AF018093AE01359912C05E
S11326708091AA019091AB019C012F5F3F4F309351
S1132680AB012093AA010497039710F4449A91C1D3
S113269044988FC18091AA019091AB01009709F4ED
S11326A088C184309105B0F48091060190910701AE
S11326B001968530910529F09093070180930601D6
S11326C004C070920701609206011092AB0110924F
S11326D0AA016FC19C01255031092330310508F04E
S11326E05EC14498209103023091040226503109BE
S11326F0E091D001F091D101608571858285938547
S1132700CC24CA94DC2CE12CF12C83014CE350E062
S11327100E94BD0720910302309104022650310922
S1132720E091D001F091D101648175818681978116
S1132730730146E650E00E94BD07209103023091E8
S1132740040226503109E091D001F091D101608159
S113275071818281938140E950E00E94BD072091FC
S1132760030230910402275F3F4FE0910102F09190
S113277002026085718582859385E12CF12C4CE3FE
S113278050E00E94BD072091030230910402275FAC
S11327903F4FE0910102F0910202648175818681CC
S11327A09781730146E650E00E94BD072091030221
S11327B030910402275F3F4FE0910102F091020241
S11327C0608171818281938140E950E00E94BD075C
S11327D060910C0170910D0180E090E00E94471619
S11327E09B01AC0160E070E080E291E40E94C918B2
S11327F06B017C0160910E0170910F0180E090E00B
S11328000E944716A70196010E945C180E941104B9
S11328106093F9017093FA018093FB019093FC019A
S113282020910A0130910B018091080190910901D6
S1132830289FB001299F700D389F700D112480E0EE
S113284090E00E9447160E9411047B018C01609362
S1132850E3017093E4018093E5019093E6012091F4
S1132860F9013091FA014091FB015091FC01609112
S1132870D0017091D1015F924F920F2EFEEB8F2EFB
S1132880F1E09F2EF02D0F2EF8E0AF2EF1E2BF2ED7
S1132890F4E8CF2EFAE3DF2EF02D8091010290911F
S11328A002020E9440022091030230910402265049
S11328B03109E091D001F091D10160857185828563
S11328C09385C12CD12CE12CF12C83014CE350E0F5
S11328D00E94BD0720910302309104022650310961
S11328E0E091D001F091D101648175818681978155
S11328F0730146E650E00E94BD0720910302309127
S1132900040226503109E091D001F091D101608197
S113291071818281938140E950E00E94BD0720913A
S1132920030230910402275F3F4FE0910102F091CE
S113293002026085718582859385E12CF12C4CE33C
S113294050E00E94BD072091030230910402275FEA
S11329503F4FE0910102F09102026481758186810A
S11329609781730146E650E00E94BD07209103025F
S113297030910402275F3F4FE0910102F09102027F
S1132980608171818281938140E950E00E94BD079A
S11329901092AB011092AA010F900F900AC00997F0
S11329A040F07092AD016092AC011092AB011092B4
S11329B0AA012FEF84E39CE0215080409040E1F78E
S11329C000C000007CCD8FEF9FEF0E94C0080E94E2
S11329D0990C3599FECF8FEF9FEF0E94C0080E949B
S11329E0B40B3599FECF8FEF9FEF0E94C008109271
S11329F0AD011092AC010E943C0A61CD5058BB2736
S1132A00AA270E9416150C94A5170E946C1738F07B
S1132A100E94731720F039F49F3F19F426F40C94A4
S1132A2042170EF4E095E7FB0C941317E92F0E946C
S1132A30B61758F3BA17620773078407950720F08F
S1132A4079F4A6F50C94F0170EF4E0950B2EBA2F3A
S1132A50A02D0B01B90190010C01CA01A0011124A0
S1132A60FF27591B99F0593F50F4503E68F11A164C
S1132A70F040A22F232F342F4427585FF3CF4695DD
S1132A8037952795A795F0405395C9F77EF41F16FF
S1132A90BA0B620B730B840BBAF09150A1F0FF0FC9
S1132AA0BB1F661F771F881FC2F70EC0BA0F621FB5
S1132AB0731F841F48F4879577956795B795F795A5
S1132AC09E3F08F0B0CF9395880F08F09927EE0F3A
S1132AD0979587950895DF93DD27B92FBF7740E851
S1132AE05FE31616170648075B0718F4D92F0E94F0
S1132AF0FC179F938F937F936F930E948319E8E64B
S1132B00F0E00E9445170E94A5172F913F914F9125
S1132B105F910E946F18DD2351F09058A2EA2AEDCC
S1132B203FE049EC5FE3D0785D270E941615DF9102
S1132B300C94A5170E94EF1608F481E008950E94F2
S1132B40B3150C94A5170E94731758F00E946C17C4
S1132B5040F029F45F3F29F00C94131751110C94A1
S1132B60F1170C9442170E94B61768F39923B1F336
S1132B70552391F3951B550BBB27AA27621773079F
S1132B80840738F09F5F5F4F220F331F441FAA1F33
S1132B90A9F335D00E2E3AF0E0E832D091505040EF
S1132BA0E695001CCAF72BD0FE2F29D0660F771F9D
S1132BB0881FBB1F261737074807AB07B0E809F083
S1132BC0BB0B802DBF01FF2793585F4F3AF09E3F08
S1132BD0510578F00C9413170C94F1175F3FE4F34C
S1132BE0983ED4F3869577956795B795F7959F5F4B
S1132BF0C9F7880F911D9695879597F90895E1E097
S1132C00660F771F881FBB1F621773078407BA07F5
S1132C1020F0621B730B840BBA0BEE1F88F7E09550
S1132C2008950E9418166894B1110C94F117089530
S1132C300E94BE1788F09F5798F0B92F9927B75173
S1132C40B0F0E1F0660F771F881F991F1AF0BA954C
S1132C50C9F714C0B13091F00E94F017B1E00895A3
S1132C600C94F017672F782F8827B85F39F0B93F95
S1132C70CCF3869577956795B395D9F73EF49095FF
S1132C808095709561957F4F8F4F9F4F0895E8947D
S1132C9009C097FB3EF490958095709561957F4FA0
S1132CA08F4F9F4F9923A9F0F92F96E9BB2793954E
S1132CB0F695879577956795B795F111F8CFFAF45E
S1132CC0BB0F11F460FF1BC06F5F7F4F8F4F9F4F8F
S1132CD016C0882311F096E911C0772321F09EE8ED
S1132CE0872F762F05C0662371F096E8862F70E053
S1132CF060E02AF09A95660F771F881FDAF7880F2D
S1132D009695879597F908950E94D81790F09F3764
S1132D1048F4911116F00C94F11760E070E080E82B
S1132D209FEB089526F41B16611D711D811D0C94E3
S1132D3019170C9434170E946C1720F019F00E9494
S1132D40731750F40C9442170C94F117E92F0E9456
S1132D50B61788F35523B1F3E7FB621773078407AB
S1132D609507A8F189F3E92FFF2788232AF03197E3
S1132D70660F771F881FDAF7952F5527442332F003
S1132D8091505040220F331F441FD2F7BB27E91B39
S1132D90F50B621B730B840BB109B1F222F4620FC1
S1132DA0731F841FB11D31972AF0660F771F881F88
S1132DB0BB1FEFCF9150504062F041F0882332F0B6
S1132DC0660F771F881F91505040C1F793950C945C
S1132DD034178695779567959F5FD9F7F7CF990F45
S1132DE00008550FAA0BE0E8FEEF16161706E807D1
S1132DF0F907C0F012161306E407F50798F0621BF2
S1132E00730B840B950B39F40A2661F0232B242BC6
S1132E10252B21F408950A2609F4A140A6958FEFE5
S1132E20811D811D089597F99F6780E870E060E037
S1132E300895882371F4772321F09850872B762FF7
S1132E4007C0662311F499270DC09051862B70E0BA
S1132E5060E02AF09A95660F771F881FDAF7880FCB
S1132E609695879597F908959F3F31F0915020F4F6
S1132E70879577956795B795880F911D9695879552
S1132E8097F908959FEF80EC0895DF93CF931F93F4
S1132E900F93FF92EF92DF927B018C01689406C03E
S1132EA0DA2EEF010E946F18FE01E894A591259196
S1132EB0359145915591A6F3EF010E941615FE0137
S1132EC09701A801DA9469F7DF90EF90FF900F91D2
S1132ED01F91CF91DF91089500240A9416161706C6
S1132EE018060906089500240A94121613061406F7
S1132EF0050608950C9442170E94BE17D8F3E8946F
S1132F00E0E0BB279F57F0F02AED3FE049EC06C014
S1132F10EE0FBB0F661F771F881F28F0B23A6207B7
S1132F207307840728F0B25A620B730B840BE39582
S1132F309A9572F7803830F49A95BB0F661F771F05
S1132F40881FD2F790480C943617092E0394000C6E
S1132F5011F4882352F0BB0F40F4BF2B11F460FF2F
S1132F6004C06F5F7F4F8F4F9F4F089557FD905858
S1132F70440F551F59F05F3F71F04795880F97FB39
S1132F80991F61F09F3F79F08795089512161306F3
S1132F901406551FF2CF4695F1DF08C01616170622
S1132FA01806991FF1CF8695710561050894089557
S1132FB00E94BE17A0F0BEE7B91788F4BB279F385C
S1132FC060F41616B11D672F782F8827985FF7CF06
S1132FD0869577956795B11D93959639C8F30895AD
S1132FE0E894BB2766277727CB0197F908950E94B9
S1132FF0EF1608F48FEF08959B01AC0160E070E0D8
S113300080E89FE30C949F150E94141829ED3BE57A
S11330104EED5EE30C945C1816F00C9434170C948B
S1133020421768940C9413170E94BE17A8F39923AF
S1133030C1F3AEF3DF93CF931F930F93FF92C92F86
S1133040DD2788232AF02197660F771F881FDAF778
S113305020E030E040E85FEB9FE3883920F0803ED9
S113306038F021968F770E94FF14E5E9F0E004C060
S11330700E94FF14E2ECF0E00E9445178B01BE01B0
S1133080EC01FB2E6F5771097595771F880B990B0F
S11330900E94491628E132E741E35FE30E946F187A
S11330A0AF2D9801AE01FF900F911F91CF91DF9149
S11330B00E9416150C94A5170E946F180C94A5175E
S11330C00E946C1738F00E94731720F0952311F0BA
S11330D00C9413170C94421711240C94F1170E94AA
S11330E0B61770F3959FC1F3950F50E0551F629F7B
S11330F0F001729FBB27F00DB11D639FAA27F00D4D
S1133100B11DAA1F649F6627B00DA11D661F829F73
S11331102227B00DA11D621F739FB00DA11D621F58
S1133120839FA00D611D221F749F3327A00D611D75
S1133130231F849F600D211D822F762F6A2F112457
S11331409F5750409AF0F1F088234AF0EE0FFF1F8A
S1133150BB1F661F771F881F91505040A9F79E3FE1
S1133160510580F00C9413170C94F1175F3FE4F3AE
S1133170983ED4F3869577956795B795F795E79537
S11331809F5FC1F7FE2B880F911D9695879597F940
S11331900895FA01EE0FFF1F309621053105A1F1C4
S11331A06115710561F48038BFE39B0749F16894A8
S11331B09038810561F08038BFEF9B0741F0992377
S11331C04AF5FF3FE1053105210519F1E89408941A
S11331D0E795D901AA2329F4AB2FBE2FF85FD0F3CA
S11331E010C0FF5F70F4A695E0F7F73950F019F0BE
S11331F0FF3A38F49F779F930DD00F9007FC9058B7
S1133200089546F00C94421760E070E080E89FE374
S113321008954FE79F775F934F933F932F930E94B7
S113322014182F913F914F915F910E945C180C9458
S1133230B9190E94BE17E8F09E37E8F09639B8F441
S11332409E3848F4672F782F8827985FF9CF8695A2
S11332507795679593959539D0F3B62FB1706B0F29
S1133260711D811D20F487957795679593950C942E
S113327019170C9434170C94F11719F416F40C94D0
S113328042170C9434170E94BE17B8F39923C9F35C
S1133290B6F39F57550B87FF0E94EB190024A0E655
S11332A040EA900180585695979528F4805C660F03
S11332B0771F881F20F026173707480730F4621B52
S11332C0730B840B202931294A2BA6951794079454
S11332D0202531254A2758F7660F771F881F20F0CD
S11332E026173707480730F4620B730B840B200D45
S11332F0311D411DA09581F7B901842F9158880F84
S11333009695879508959B01AC010C945C18DF9306
S1133310D92F0E947C17E695D7952AED3FE049E422
S11333205FE3B33A6207730784079507D7953AF0CA
S1133330A2EA49EC90680E9416150E94A517EFEEC8
S1133340F0E00E94F219DD0F13F00E94FC17DD0F6C
S11333500BF49058DF9108950E94EF16880B990B97
S1133360089529F416F00C9413170C94F0170C9488
S113337042170E94BE17A8F39638A0F707F80F92D9
S1133380E8942BE33AEA48EB5FE70E9472180F9245
S11333900F920F924DB75EB70F920E94401AE2E16E
S11333A0F1E00E9445174F915F91EF91FF91E595F0
S11333B0EE1FFF1F49F0FE57E0684427EE0F441F3D
S11333C0FA95E1F74195550B0E940A1A0F9007FEF2
S11333D00C94FC17089591505040660F771F881F76
S11333E0D2F708959F938F937F936F93FF93EF93F7
S11333F09B01AC010E945C18EF91FF910E9445175C
S11334002F913F914F915F910C945C180C9413177A
S11334100C9434170E94BE17D8F39923C9F3940F60
S1133420511DA3F39150504094F059F0882332F089
S1133430660F771F881F91505040C1F79E3F51057A
S11334402CF7880F911D9695879597F908955F3FFE
S1133450ACF0983E9CF0BB27869577956795B79519
S113346008F4B1609395C1F7BB0F58F711F460FFEE
S1133470E8CF6F5F7F4F8F4F9F4FE3CF0C94F117CF
S1133480FA01DC01AA0FBB1F9B01AC01BF5728F452
S1133490222733274427507820C0B75190F4AB2F0C
S11334A00024469537952795011CA395D2F3002057
S11334B071F0220F331F441FB395DAF30ED00C942E
S11334C0FE1461307105A0E88A07B94630F49B0107
S11334D0AC016627772788279078309621F02083DF
S11334E0318342835383089597FB072E16F4009487
S11334F007D077FD09D00E94A71A07FC05D03EF437
S1133500909581959F4F0895709561957F4F08958B
S1133510052E97FB1EF400940E949F1A57FD07D0B6
S11335200E94BB1A07FC03D04EF40C949F1A5095CA
S11335304095309521953F4F4F4F5F4F089590959B
S11335408095709561957F4F8F4F9F4F0895AA1B6B
S1133550BB1B51E107C0AA1FBB1FA617B70710F07A
S1133560A61BB70B881F991F5A95A9F780959095AC
S1133570BC01CD010895A1E21A2EAA1BBB1BFD01BB
S11335800DC0AA1FBB1FEE1FFF1FA217B307E4073E
S1133590F50720F0A21BB30BE40BF50B661F771F96
S11335A0881F991F1A9469F7609570958095909576
S11335B09B01AC01BD01CF0108950F931F93CF93DD
S11335C0DF938230910510F482E090E0E0910D02E7
S11335D0F0910E0220E030E0A0E0B0E0309719F165
S11335E0408151810281138148175907C8F084171B
S11335F0950769F4109731F012960C93129713966D
S11336001C9327C000930D0210930E0222C02115B3
S1133610310519F04217530718F49A01BD01EF015F
S1133620DF01F801DBCF21153105F9F0281B390B37
S11336302430310580F48A819B816115710521F064
S1133640FB019383828304C090930E0280930D0246
S1133650FE01329644C0FE01E20FF31F8193919361
S113366022503109398328833AC020910B023091CA
S11336700C02232B41F42091020130910301309379
S11336800C0220930B0220910001309101012115BD
S1133690310541F42DB73EB7409104015091050125
S11336A0241B350BE0910B02F0910C02E217F30797
S11336B0A0F42E1B3F0B2817390778F0AC014E5F9E
S11336C05F4F2417350748F04E0F5F1F50930C02CD
S11336D040930B028193919302C0E0E0F0E0CF01AC
S11336E0DF91CF911F910F910895CF93DF930097AE
S11336F009F481C0FC01329713821282A0910D0259
S1133700B0910E02109781F420813181820F931FB2
S113371020910B0230910C022817390751F5F093D0
S11337200C02E0930B0267C0ED0120E030E0CE17FD
S1133730DF0740F44A815B819E0141155105F1F098
S1133740EA01F5CFD383C28340815181840F951F51
S1133750C817D90759F488819981840F951F029657
S1133760918380838A819B81938382832115310590
S113377029F4F0930E02E0930D023DC0E901FB83AE
S1133780EA8349915991C40FD51FEC17FD0761F4E1
S113379080819181840F951F0296E9019983888322
S11337A0828193819B838A83E0E0F0E012968D917D
S11337B09C911397009719F0FD01DC01F7CF8D91CF
S11337C09C9111979D012E5F3F4F820F931F209173
S11337D00B0230910C022817390769F4309729F449
S11337E010920E0210920D0202C013821282B09344
S11337F00C02A0930B02DF91CF910895F894FFCFB0
S113380000000F022000010001000A000100050071
S11338102D002B002E0050726F696563740054658F
S11338206F7269612053697374656D656C6F722082
S1133830494900556E69766572736974617465618E
S1133840205465686E69636120436C756A2D4E610E
S1133850706F6361004672656376656E74612061A2
S1133860637475616C613A003520202A2031305E22
S11338703100487A004C756E67696D656120646536
S11338802062616E64613A003130202A310046754D
S11338906E63746961206465207472616E73666519
S10D38A0723A0048287A293D00001E
S9030000FC
